{
  "contractName": "DFcore",
  "abi": [
    {
      "constant": true,
      "inputs": [
        {
          "name": "interfaceId",
          "type": "bytes4"
        }
      ],
      "name": "supportsInterface",
      "outputs": [
        {
          "name": "",
          "type": "bool"
        }
      ],
      "payable": false,
      "stateMutability": "view",
      "type": "function"
    },
    {
      "constant": true,
      "inputs": [],
      "name": "name",
      "outputs": [
        {
          "name": "",
          "type": "string"
        }
      ],
      "payable": false,
      "stateMutability": "view",
      "type": "function"
    },
    {
      "constant": true,
      "inputs": [
        {
          "name": "tokenId",
          "type": "uint256"
        }
      ],
      "name": "getApproved",
      "outputs": [
        {
          "name": "",
          "type": "address"
        }
      ],
      "payable": false,
      "stateMutability": "view",
      "type": "function"
    },
    {
      "constant": false,
      "inputs": [
        {
          "name": "to",
          "type": "address"
        },
        {
          "name": "tokenId",
          "type": "uint256"
        }
      ],
      "name": "approve",
      "outputs": [],
      "payable": false,
      "stateMutability": "nonpayable",
      "type": "function"
    },
    {
      "constant": true,
      "inputs": [],
      "name": "totalSupply",
      "outputs": [
        {
          "name": "",
          "type": "uint256"
        }
      ],
      "payable": false,
      "stateMutability": "view",
      "type": "function"
    },
    {
      "constant": false,
      "inputs": [
        {
          "name": "from",
          "type": "address"
        },
        {
          "name": "to",
          "type": "address"
        },
        {
          "name": "tokenId",
          "type": "uint256"
        }
      ],
      "name": "transferFrom",
      "outputs": [],
      "payable": false,
      "stateMutability": "nonpayable",
      "type": "function"
    },
    {
      "constant": true,
      "inputs": [
        {
          "name": "owner",
          "type": "address"
        },
        {
          "name": "index",
          "type": "uint256"
        }
      ],
      "name": "tokenOfOwnerByIndex",
      "outputs": [
        {
          "name": "",
          "type": "uint256"
        }
      ],
      "payable": false,
      "stateMutability": "view",
      "type": "function"
    },
    {
      "constant": true,
      "inputs": [
        {
          "name": "",
          "type": "uint256"
        }
      ],
      "name": "PJs",
      "outputs": [
        {
          "name": "id",
          "type": "uint256"
        },
        {
          "name": "title",
          "type": "string"
        },
        {
          "name": "goal",
          "type": "uint256"
        },
        {
          "name": "amount",
          "type": "uint256"
        },
        {
          "name": "limittime",
          "type": "uint256"
        }
      ],
      "payable": false,
      "stateMutability": "view",
      "type": "function"
    },
    {
      "constant": true,
      "inputs": [
        {
          "name": "",
          "type": "uint256"
        }
      ],
      "name": "PJToOwner",
      "outputs": [
        {
          "name": "",
          "type": "address"
        }
      ],
      "payable": false,
      "stateMutability": "view",
      "type": "function"
    },
    {
      "constant": false,
      "inputs": [
        {
          "name": "from",
          "type": "address"
        },
        {
          "name": "to",
          "type": "address"
        },
        {
          "name": "tokenId",
          "type": "uint256"
        }
      ],
      "name": "safeTransferFrom",
      "outputs": [],
      "payable": false,
      "stateMutability": "nonpayable",
      "type": "function"
    },
    {
      "constant": false,
      "inputs": [
        {
          "name": "_tokenId",
          "type": "uint256"
        }
      ],
      "name": "burn",
      "outputs": [],
      "payable": false,
      "stateMutability": "nonpayable",
      "type": "function"
    },
    {
      "constant": true,
      "inputs": [
        {
          "name": "index",
          "type": "uint256"
        }
      ],
      "name": "tokenByIndex",
      "outputs": [
        {
          "name": "",
          "type": "uint256"
        }
      ],
      "payable": false,
      "stateMutability": "view",
      "type": "function"
    },
    {
      "constant": true,
      "inputs": [
        {
          "name": "tokenId",
          "type": "uint256"
        }
      ],
      "name": "ownerOf",
      "outputs": [
        {
          "name": "",
          "type": "address"
        }
      ],
      "payable": false,
      "stateMutability": "view",
      "type": "function"
    },
    {
      "constant": true,
      "inputs": [
        {
          "name": "owner",
          "type": "address"
        }
      ],
      "name": "balanceOf",
      "outputs": [
        {
          "name": "",
          "type": "uint256"
        }
      ],
      "payable": false,
      "stateMutability": "view",
      "type": "function"
    },
    {
      "constant": false,
      "inputs": [],
      "name": "renounceOwnership",
      "outputs": [],
      "payable": false,
      "stateMutability": "nonpayable",
      "type": "function"
    },
    {
      "constant": true,
      "inputs": [],
      "name": "owner",
      "outputs": [
        {
          "name": "",
          "type": "address"
        }
      ],
      "payable": false,
      "stateMutability": "view",
      "type": "function"
    },
    {
      "constant": true,
      "inputs": [],
      "name": "isOwner",
      "outputs": [
        {
          "name": "",
          "type": "bool"
        }
      ],
      "payable": false,
      "stateMutability": "view",
      "type": "function"
    },
    {
      "constant": true,
      "inputs": [],
      "name": "symbol",
      "outputs": [
        {
          "name": "",
          "type": "string"
        }
      ],
      "payable": false,
      "stateMutability": "view",
      "type": "function"
    },
    {
      "constant": true,
      "inputs": [
        {
          "name": "_owner",
          "type": "address"
        }
      ],
      "name": "supportTokenid",
      "outputs": [
        {
          "name": "",
          "type": "uint256[]"
        }
      ],
      "payable": false,
      "stateMutability": "view",
      "type": "function"
    },
    {
      "constant": true,
      "inputs": [
        {
          "name": "",
          "type": "address"
        }
      ],
      "name": "ownerPJCount",
      "outputs": [
        {
          "name": "",
          "type": "uint256"
        }
      ],
      "payable": false,
      "stateMutability": "view",
      "type": "function"
    },
    {
      "constant": false,
      "inputs": [
        {
          "name": "to",
          "type": "address"
        },
        {
          "name": "approved",
          "type": "bool"
        }
      ],
      "name": "setApprovalForAll",
      "outputs": [],
      "payable": false,
      "stateMutability": "nonpayable",
      "type": "function"
    },
    {
      "constant": false,
      "inputs": [
        {
          "name": "from",
          "type": "address"
        },
        {
          "name": "to",
          "type": "address"
        },
        {
          "name": "tokenId",
          "type": "uint256"
        },
        {
          "name": "_data",
          "type": "bytes"
        }
      ],
      "name": "safeTransferFrom",
      "outputs": [],
      "payable": false,
      "stateMutability": "nonpayable",
      "type": "function"
    },
    {
      "constant": true,
      "inputs": [
        {
          "name": "tokenId",
          "type": "uint256"
        }
      ],
      "name": "tokenURI",
      "outputs": [
        {
          "name": "",
          "type": "string"
        }
      ],
      "payable": false,
      "stateMutability": "view",
      "type": "function"
    },
    {
      "constant": true,
      "inputs": [
        {
          "name": "owner",
          "type": "address"
        },
        {
          "name": "operator",
          "type": "address"
        }
      ],
      "name": "isApprovedForAll",
      "outputs": [
        {
          "name": "",
          "type": "bool"
        }
      ],
      "payable": false,
      "stateMutability": "view",
      "type": "function"
    },
    {
      "constant": false,
      "inputs": [
        {
          "name": "newOwner",
          "type": "address"
        }
      ],
      "name": "transferOwnership",
      "outputs": [],
      "payable": false,
      "stateMutability": "nonpayable",
      "type": "function"
    },
    {
      "anonymous": false,
      "inputs": [
        {
          "indexed": false,
          "name": "id",
          "type": "uint256"
        },
        {
          "indexed": false,
          "name": "title",
          "type": "string"
        },
        {
          "indexed": false,
          "name": "goal",
          "type": "uint256"
        },
        {
          "indexed": false,
          "name": "amount",
          "type": "uint256"
        },
        {
          "indexed": false,
          "name": "limit",
          "type": "uint256"
        },
        {
          "indexed": false,
          "name": "supporters",
          "type": "address[]"
        }
      ],
      "name": "NewPJ",
      "type": "event"
    },
    {
      "anonymous": false,
      "inputs": [
        {
          "indexed": false,
          "name": "id",
          "type": "uint256"
        },
        {
          "indexed": false,
          "name": "funded",
          "type": "uint256"
        },
        {
          "indexed": false,
          "name": "pledged",
          "type": "uint256"
        },
        {
          "indexed": false,
          "name": "supporters",
          "type": "address[]"
        }
      ],
      "name": "Deposit",
      "type": "event"
    },
    {
      "anonymous": false,
      "inputs": [
        {
          "indexed": true,
          "name": "from",
          "type": "address"
        },
        {
          "indexed": true,
          "name": "to",
          "type": "address"
        },
        {
          "indexed": true,
          "name": "tokenId",
          "type": "uint256"
        }
      ],
      "name": "Transfer",
      "type": "event"
    },
    {
      "anonymous": false,
      "inputs": [
        {
          "indexed": true,
          "name": "owner",
          "type": "address"
        },
        {
          "indexed": true,
          "name": "approved",
          "type": "address"
        },
        {
          "indexed": true,
          "name": "tokenId",
          "type": "uint256"
        }
      ],
      "name": "Approval",
      "type": "event"
    },
    {
      "anonymous": false,
      "inputs": [
        {
          "indexed": true,
          "name": "owner",
          "type": "address"
        },
        {
          "indexed": true,
          "name": "operator",
          "type": "address"
        },
        {
          "indexed": false,
          "name": "approved",
          "type": "bool"
        }
      ],
      "name": "ApprovalForAll",
      "type": "event"
    },
    {
      "anonymous": false,
      "inputs": [
        {
          "indexed": true,
          "name": "previousOwner",
          "type": "address"
        },
        {
          "indexed": true,
          "name": "newOwner",
          "type": "address"
        }
      ],
      "name": "OwnershipTransferred",
      "type": "event"
    },
    {
      "constant": false,
      "inputs": [
        {
          "name": "_title",
          "type": "string"
        },
        {
          "name": "_goal",
          "type": "uint256"
        },
        {
          "name": "_limittime",
          "type": "uint256"
        }
      ],
      "name": "makePJ",
      "outputs": [],
      "payable": false,
      "stateMutability": "nonpayable",
      "type": "function"
    },
    {
      "constant": false,
      "inputs": [
        {
          "name": "_id",
          "type": "uint256"
        },
        {
          "name": "_URI",
          "type": "string"
        }
      ],
      "name": "deposit",
      "outputs": [],
      "payable": true,
      "stateMutability": "payable",
      "type": "function"
    },
    {
      "constant": false,
      "inputs": [
        {
          "name": "_id",
          "type": "uint256"
        }
      ],
      "name": "success_withdraw",
      "outputs": [],
      "payable": false,
      "stateMutability": "nonpayable",
      "type": "function"
    },
    {
      "constant": false,
      "inputs": [
        {
          "name": "_id",
          "type": "uint256"
        }
      ],
      "name": "failure_withdraw",
      "outputs": [],
      "payable": false,
      "stateMutability": "nonpayable",
      "type": "function"
    },
    {
      "constant": true,
      "inputs": [
        {
          "name": "_owner",
          "type": "address"
        }
      ],
      "name": "getPJByOwner",
      "outputs": [
        {
          "name": "",
          "type": "uint256[]"
        }
      ],
      "payable": false,
      "stateMutability": "view",
      "type": "function"
    },
    {
      "constant": true,
      "inputs": [
        {
          "name": "_id",
          "type": "uint256"
        }
      ],
      "name": "getPJInfo",
      "outputs": [
        {
          "name": "",
          "type": "uint256"
        },
        {
          "name": "",
          "type": "string"
        },
        {
          "name": "",
          "type": "uint256"
        },
        {
          "name": "",
          "type": "uint256"
        },
        {
          "name": "",
          "type": "uint256"
        },
        {
          "name": "",
          "type": "address[]"
        }
      ],
      "payable": false,
      "stateMutability": "view",
      "type": "function"
    },
    {
      "constant": true,
      "inputs": [
        {
          "name": "_id",
          "type": "uint256"
        },
        {
          "name": "_address",
          "type": "address"
        }
      ],
      "name": "getPJFunds",
      "outputs": [
        {
          "name": "",
          "type": "uint256"
        }
      ],
      "payable": false,
      "stateMutability": "view",
      "type": "function"
    },
    {
      "constant": true,
      "inputs": [],
      "name": "getPJCount",
      "outputs": [
        {
          "name": "",
          "type": "uint256"
        }
      ],
      "payable": false,
      "stateMutability": "view",
      "type": "function"
    }
  ],
  "bytecode": "0x60806040526000600d556040805190810160405280600d81526020017f44464372656469656e7469616c000000000000000000000000000000000000008152506040805190810160405280600381526020017f44464300000000000000000000000000000000000000000000000000000000008152508181336000806101000a81548173ffffffffffffffffffffffffffffffffffffffff021916908373ffffffffffffffffffffffffffffffffffffffff1602179055506000809054906101000a900473ffffffffffffffffffffffffffffffffffffffff1673ffffffffffffffffffffffffffffffffffffffff16600073ffffffffffffffffffffffffffffffffffffffff167f8be0079c531659141344cd1fd0a4f28419497f9722a3daafe3b4186f6b6457e060405160405180910390a3620001706301ffc9a77c01000000000000000000000000000000000000000000000000000000000262000263640100000000026401000000009004565b620001ad6380ac58cd7c01000000000000000000000000000000000000000000000000000000000262000263640100000000026401000000009004565b620001ea63780e9d637c01000000000000000000000000000000000000000000000000000000000262000263640100000000026401000000009004565b81600a90805190602001906200020292919062000321565b5080600b90805190602001906200021b92919062000321565b5062000259635b5e139f7c01000000000000000000000000000000000000000000000000000000000262000263640100000000026401000000009004565b50505050620003d0565b63ffffffff7c010000000000000000000000000000000000000000000000000000000002817bffffffffffffffffffffffffffffffffffffffffffffffffffffffff191614151515620002b557600080fd5b6001806000837bffffffffffffffffffffffffffffffffffffffffffffffffffffffff19167bffffffffffffffffffffffffffffffffffffffffffffffffffffffff1916815260200190815260200160002060006101000a81548160ff02191690831515021790555050565b828054600181600116156101000203166002900490600052602060002090601f016020900481019282601f106200036457805160ff191683800117855562000395565b8280016001018555821562000395579182015b828111156200039457825182559160200191906001019062000377565b5b509050620003a49190620003a8565b5090565b620003cd91905b80821115620003c9576000816000905550600101620003af565b5090565b90565b613a5780620003e06000396000f3006080604052600436106101a1576000357c0100000000000000000000000000000000000000000000000000000000900463ffffffff16806301ffc9a7146101a657806306fdde031461020a578063081812fc1461029a578063095ea7b31461030757806318160ddd1461035457806323b872dd1461037f5780632f745c59146103ec57806332d561b21461044d57806332fa0d971461050f57806342842e0e1461057c57806342966c68146105e9578063469b942b146106165780634f6ccce71461067757806362829405146106b85780636352211e146106e357806370a0823114610750578063715018a6146107a75780638da5cb5b146107be5780638f32d59b146108155780639154ea7c1461084457806395b7f70e146108c157806395d89b41146108ee57806397435c151461097e5780639e0d598b14610a88578063a154f51014610b20578063a22cb46514610b77578063b88d4fde14610bc6578063bf7102b714610c79578063c87b56dd14610ca6578063e985e9c514610d4c578063ed695a5f14610dc7578063f1215d2514610e5f578063f2fde38b14610ec5575b600080fd5b3480156101b257600080fd5b506101f060048036038101908080357bffffffffffffffffffffffffffffffffffffffffffffffffffffffff19169060200190929190505050610f08565b604051808215151515815260200191505060405180910390f35b34801561021657600080fd5b5061021f610f70565b6040518080602001828103825283818151815260200191508051906020019080838360005b8381101561025f578082015181840152602081019050610244565b50505050905090810190601f16801561028c5780820380516001836020036101000a031916815260200191505b509250505060405180910390f35b3480156102a657600080fd5b506102c560048036038101908080359060200190929190505050611012565b604051808273ffffffffffffffffffffffffffffffffffffffff1673ffffffffffffffffffffffffffffffffffffffff16815260200191505060405180910390f35b34801561031357600080fd5b50610352600480360381019080803573ffffffffffffffffffffffffffffffffffffffff16906020019092919080359060200190929190505050611063565b005b34801561036057600080fd5b506103696111a8565b6040518082815260200191505060405180910390f35b34801561038b57600080fd5b506103ea600480360381019080803573ffffffffffffffffffffffffffffffffffffffff169060200190929190803573ffffffffffffffffffffffffffffffffffffffff169060200190929190803590602001909291905050506111b5565b005b3480156103f857600080fd5b50610437600480360381019080803573ffffffffffffffffffffffffffffffffffffffff16906020019092919080359060200190929190505050611284565b6040518082815260200191505060405180910390f35b34801561045957600080fd5b50610478600480360381019080803590602001909291905050506112fb565b6040518086815260200180602001858152602001848152602001838152602001828103825286818151815260200191508051906020019080838360005b838110156104d05780820151818401526020810190506104b5565b50505050905090810190601f1680156104fd5780820380516001836020036101000a031916815260200191505b50965050505050505060405180910390f35b34801561051b57600080fd5b5061053a600480360381019080803590602001909291905050506113d8565b604051808273ffffffffffffffffffffffffffffffffffffffff1673ffffffffffffffffffffffffffffffffffffffff16815260200191505060405180910390f35b34801561058857600080fd5b506105e7600480360381019080803573ffffffffffffffffffffffffffffffffffffffff169060200190929190803573ffffffffffffffffffffffffffffffffffffffff1690602001909291908035906020019092919050505061140b565b005b3480156105f557600080fd5b506106146004803603810190808035906020019092919050505061142c565b005b34801561062257600080fd5b5061066160048036038101908080359060200190929190803573ffffffffffffffffffffffffffffffffffffffff169060200190929190505050611439565b6040518082815260200191505060405180910390f35b34801561068357600080fd5b506106a2600480360381019080803590602001909291905050506114a1565b6040518082815260200191505060405180910390f35b3480156106c457600080fd5b506106cd6114d9565b6040518082815260200191505060405180910390f35b3480156106ef57600080fd5b5061070e600480360381019080803590602001909291905050506114e6565b604051808273ffffffffffffffffffffffffffffffffffffffff1673ffffffffffffffffffffffffffffffffffffffff16815260200191505060405180910390f35b34801561075c57600080fd5b50610791600480360381019080803573ffffffffffffffffffffffffffffffffffffffff169060200190929190505050611564565b6040518082815260200191505060405180910390f35b3480156107b357600080fd5b506107bc6115e8565b005b3480156107ca57600080fd5b506107d36116ba565b604051808273ffffffffffffffffffffffffffffffffffffffff1673ffffffffffffffffffffffffffffffffffffffff16815260200191505060405180910390f35b34801561082157600080fd5b5061082a6116e3565b604051808215151515815260200191505060405180910390f35b34801561085057600080fd5b506108bf600480360381019080803590602001908201803590602001908080601f0160208091040260200160405190810160405280939291908181526020018383808284378201915050505050509192919290803590602001909291908035906020019092919050505061173a565b005b3480156108cd57600080fd5b506108ec600480360381019080803590602001909291905050506119b5565b005b3480156108fa57600080fd5b50610903611c3b565b6040518080602001828103825283818151815260200191508051906020019080838360005b83811015610943578082015181840152602081019050610928565b50505050905090810190601f1680156109705780820380516001836020036101000a031916815260200191505b509250505060405180910390f35b34801561098a57600080fd5b506109a960048036038101908080359060200190929190505050611cdd565b604051808781526020018060200186815260200185815260200184815260200180602001838103835288818151815260200191508051906020019080838360005b83811015610a055780820151818401526020810190506109ea565b50505050905090810190601f168015610a325780820380516001836020036101000a031916815260200191505b50838103825284818151815260200191508051906020019060200280838360005b83811015610a6e578082015181840152602081019050610a53565b505050509050019850505050505050505060405180910390f35b348015610a9457600080fd5b50610ac9600480360381019080803573ffffffffffffffffffffffffffffffffffffffff169060200190929190505050611ee5565b6040518080602001828103825283818151815260200191508051906020019060200280838360005b83811015610b0c578082015181840152602081019050610af1565b505050509050019250505060405180910390f35b348015610b2c57600080fd5b50610b61600480360381019080803573ffffffffffffffffffffffffffffffffffffffff169060200190929190505050611f76565b6040518082815260200191505060405180910390f35b348015610b8357600080fd5b50610bc4600480360381019080803573ffffffffffffffffffffffffffffffffffffffff169060200190929190803515159060200190929190505050611f8e565b005b348015610bd257600080fd5b50610c77600480360381019080803573ffffffffffffffffffffffffffffffffffffffff169060200190929190803573ffffffffffffffffffffffffffffffffffffffff16906020019092919080359060200190929190803590602001908201803590602001908080601f01602080910402602001604051908101604052809392919081815260200183838082843782019150505050505091929192905050506120ca565b005b348015610c8557600080fd5b50610ca4600480360381019080803590602001909291905050506120f2565b005b348015610cb257600080fd5b50610cd16004803603810190808035906020019092919050505061231a565b6040518080602001828103825283818151815260200191508051906020019080838360005b83811015610d11578082015181840152602081019050610cf6565b50505050905090810190601f168015610d3e5780820380516001836020036101000a031916815260200191505b509250505060405180910390f35b348015610d5857600080fd5b50610dad600480360381019080803573ffffffffffffffffffffffffffffffffffffffff169060200190929190803573ffffffffffffffffffffffffffffffffffffffff1690602001909291905050506123e3565b604051808215151515815260200191505060405180910390f35b348015610dd357600080fd5b50610e08600480360381019080803573ffffffffffffffffffffffffffffffffffffffff169060200190929190505050612477565b6040518080602001828103825283818151815260200191508051906020019060200280838360005b83811015610e4b578082015181840152602081019050610e30565b505050509050019250505060405180910390f35b610ec360048036038101908080359060200190929190803590602001908201803590602001908080601f01602080910402602001604051908101604052809392919081815260200183838082843782019150505050505091929192905050506125a9565b005b348015610ed157600080fd5b50610f06600480360381019080803573ffffffffffffffffffffffffffffffffffffffff1690602001909291905050506129dd565b005b600060016000837bffffffffffffffffffffffffffffffffffffffffffffffffffffffff19167bffffffffffffffffffffffffffffffffffffffffffffffffffffffff1916815260200190815260200160002060009054906101000a900460ff169050919050565b6060600a8054600181600116156101000203166002900480601f0160208091040260200160405190810160405280929190818152602001828054600181600116156101000203166002900480156110085780601f10610fdd57610100808354040283529160200191611008565b820191906000526020600020905b815481529060010190602001808311610feb57829003601f168201915b5050505050905090565b600061101d826129fc565b151561102857600080fd5b6003600083815260200190815260200160002060009054906101000a900473ffffffffffffffffffffffffffffffffffffffff169050919050565b600061106e826114e6565b90508073ffffffffffffffffffffffffffffffffffffffff168373ffffffffffffffffffffffffffffffffffffffff16141515156110ab57600080fd5b8073ffffffffffffffffffffffffffffffffffffffff163373ffffffffffffffffffffffffffffffffffffffff1614806110eb57506110ea81336123e3565b5b15156110f657600080fd5b826003600084815260200190815260200160002060006101000a81548173ffffffffffffffffffffffffffffffffffffffff021916908373ffffffffffffffffffffffffffffffffffffffff160217905550818373ffffffffffffffffffffffffffffffffffffffff168273ffffffffffffffffffffffffffffffffffffffff167f8c5be1e5ebec7d5bd14f71427d1e84f3dd0314c0f7b2291e5b200ac8c7c3b92560405160405180910390a4505050565b6000600880549050905090565b6111bf3382612a6e565b15156111ca57600080fd5b600073ffffffffffffffffffffffffffffffffffffffff168273ffffffffffffffffffffffffffffffffffffffff161415151561120657600080fd5b6112108382612b03565b61121a8382612c06565b6112248282612dc2565b808273ffffffffffffffffffffffffffffffffffffffff168473ffffffffffffffffffffffffffffffffffffffff167fddf252ad1be2c89b69c2b068fc378daa952ba7f163c4a11628f55a4df523b3ef60405160405180910390a4505050565b600061128f83611564565b8210151561129c57600080fd5b600660008473ffffffffffffffffffffffffffffffffffffffff1673ffffffffffffffffffffffffffffffffffffffff168152602001908152602001600020828154811015156112e857fe5b9060005260206000200154905092915050565b600e8181548110151561130a57fe5b9060005260206000209060070201600091509050806000015490806001018054600181600116156101000203166002900480601f0160208091040260200160405190810160405280929190818152602001828054600181600116156101000203166002900480156113bc5780601f10611391576101008083540402835291602001916113bc565b820191906000526020600020905b81548152906001019060200180831161139f57829003601f168201915b5050505050908060020154908060030154908060040154905085565b600f6020528060005260406000206000915054906101000a900473ffffffffffffffffffffffffffffffffffffffff1681565b61142783838360206040519081016040528060008152506120ca565b505050565b6114363382612e99565b50565b6000600e8381548110151561144a57fe5b906000526020600020906007020160060160008373ffffffffffffffffffffffffffffffffffffffff1673ffffffffffffffffffffffffffffffffffffffff16815260200190815260200160002054905092915050565b60006114ab6111a8565b821015156114b857600080fd5b6008828154811015156114c757fe5b90600052602060002001549050919050565b6000600e80549050905090565b6000806002600084815260200190815260200160002060009054906101000a900473ffffffffffffffffffffffffffffffffffffffff169050600073ffffffffffffffffffffffffffffffffffffffff168173ffffffffffffffffffffffffffffffffffffffff161415151561155b57600080fd5b80915050919050565b60008073ffffffffffffffffffffffffffffffffffffffff168273ffffffffffffffffffffffffffffffffffffffff16141515156115a157600080fd5b600460008373ffffffffffffffffffffffffffffffffffffffff1673ffffffffffffffffffffffffffffffffffffffff168152602001908152602001600020549050919050565b6115f06116e3565b15156115fb57600080fd5b600073ffffffffffffffffffffffffffffffffffffffff166000809054906101000a900473ffffffffffffffffffffffffffffffffffffffff1673ffffffffffffffffffffffffffffffffffffffff167f8be0079c531659141344cd1fd0a4f28419497f9722a3daafe3b4186f6b6457e060405160405180910390a360008060006101000a81548173ffffffffffffffffffffffffffffffffffffffff021916908373ffffffffffffffffffffffffffffffffffffffff160217905550565b60008060009054906101000a900473ffffffffffffffffffffffffffffffffffffffff16905090565b60008060009054906101000a900473ffffffffffffffffffffffffffffffffffffffff1673ffffffffffffffffffffffffffffffffffffffff163373ffffffffffffffffffffffffffffffffffffffff1614905090565b60606000600e805490509050600e60c0604051908101604052808381526020018781526020018681526020016000815260200185815260200184815250908060018154018082558091505090600182039060005260206000209060070201600090919290919091506000820151816000015560208201518160010190805190602001906117c89291906137c5565b5060408201518160020155606082015181600301556080820151816004015560a0820151816005019080519060200190611803929190613845565b5050505033600f600083815260200190815260200160002060006101000a81548173ffffffffffffffffffffffffffffffffffffffff021916908373ffffffffffffffffffffffffffffffffffffffff160217905550601060003373ffffffffffffffffffffffffffffffffffffffff1673ffffffffffffffffffffffffffffffffffffffff168152602001908152602001600020600081548092919060010191905055507f6bb2213c42a9ed01f5027fcea1404f33672a02928d49930b1643743a72c765e781868660008787604051808781526020018060200186815260200185815260200184815260200180602001838103835288818151815260200191508051906020019080838360005b8381101561192c578082015181840152602081019050611911565b50505050905090810190601f1680156119595780820380516001836020036101000a031916815260200191505b50838103825284818151815260200191508051906020019060200280838360005b8381101561199557808201518184015260208101905061197a565b505050509050019850505050505050505060405180910390a15050505050565b600081600f600082815260200190815260200160002060009054906101000a900473ffffffffffffffffffffffffffffffffffffffff1673ffffffffffffffffffffffffffffffffffffffff163373ffffffffffffffffffffffffffffffffffffffff16141515611a2557600080fd5b600e83815481101515611a3457fe5b906000526020600020906007020160020154600e84815481101515611a5557fe5b90600052602060002090600702016003015410151515611a7457600080fd5b600e83815481101515611a8357fe5b90600052602060002090600702016003015491506000600e84815481101515611aa857fe5b90600052602060002090600702016003018190555060106000600f600086815260200190815260200160002060009054906101000a900473ffffffffffffffffffffffffffffffffffffffff1673ffffffffffffffffffffffffffffffffffffffff1673ffffffffffffffffffffffffffffffffffffffff1681526020019081526020016000206000815480929190600190039190505550611b486116ba565b600f600085815260200190815260200160002060006101000a81548173ffffffffffffffffffffffffffffffffffffffff021916908373ffffffffffffffffffffffffffffffffffffffff16021790555060106000611ba56116ba565b73ffffffffffffffffffffffffffffffffffffffff1673ffffffffffffffffffffffffffffffffffffffff168152602001908152602001600020600081548092919060010191905055503373ffffffffffffffffffffffffffffffffffffffff166108fc839081150290604051600060405180830381858888f19350505050158015611c35573d6000803e3d6000fd5b50505050565b6060600b8054600181600116156101000203166002900480601f016020809104026020016040519081016040528092919081815260200182805460018160011615610100020316600290048015611cd35780601f10611ca857610100808354040283529160200191611cd3565b820191906000526020600020905b815481529060010190602001808311611cb657829003601f168201915b5050505050905090565b6000606060008060006060600e87815481101515611cf757fe5b906000526020600020906007020160000154600e88815481101515611d1857fe5b9060005260206000209060070201600101600e89815481101515611d3857fe5b906000526020600020906007020160020154600e8a815481101515611d5957fe5b906000526020600020906007020160030154600e8b815481101515611d7a57fe5b906000526020600020906007020160040154600e8c815481101515611d9b57fe5b9060005260206000209060070201600501848054600181600116156101000203166002900480601f016020809104026020016040519081016040528092919081815260200182805460018160011615610100020316600290048015611e415780601f10611e1657610100808354040283529160200191611e41565b820191906000526020600020905b815481529060010190602001808311611e2457829003601f168201915b5050505050945080805480602002602001604051908101604052809291908181526020018280548015611ec957602002820191906000526020600020905b8160009054906101000a900473ffffffffffffffffffffffffffffffffffffffff1673ffffffffffffffffffffffffffffffffffffffff1681526020019060010190808311611e7f575b5050505050905095509550955095509550955091939550919395565b6060806000611ef384611564565b604051908082528060200260200182016040528015611f215781602001602082028038833980820191505090505b509150600090505b611f3284611564565b811015611f6c57611f438482611284565b8282815181101515611f5157fe5b90602001906020020181815250508080600101915050611f29565b8192505050919050565b60106020528060005260406000206000915090505481565b3373ffffffffffffffffffffffffffffffffffffffff168273ffffffffffffffffffffffffffffffffffffffff1614151515611fc957600080fd5b80600560003373ffffffffffffffffffffffffffffffffffffffff1673ffffffffffffffffffffffffffffffffffffffff16815260200190815260200160002060008473ffffffffffffffffffffffffffffffffffffffff1673ffffffffffffffffffffffffffffffffffffffff16815260200190815260200160002060006101000a81548160ff0219169083151502179055508173ffffffffffffffffffffffffffffffffffffffff163373ffffffffffffffffffffffffffffffffffffffff167f17307eab39ab6107e8899845ad3d59bd9653f200f220920489ca2b5937696c3183604051808215151515815260200191505060405180910390a35050565b6120d58484846111b5565b6120e184848484612ef8565b15156120ec57600080fd5b50505050565b6000806000600e8481548110151561210657fe5b9060005260206000209060070201600401544211151561212557600080fd5b600e8481548110151561213457fe5b906000526020600020906007020160020154600e8581548110151561215557fe5b90600052602060002090600702016003015410151561217357600080fd5b600092505b600e8481548110151561218757fe5b90600052602060002090600702016005018054905083101561231457600e848154811015156121b257fe5b9060005260206000209060070201600501838154811015156121d057fe5b9060005260206000200160009054906101000a900473ffffffffffffffffffffffffffffffffffffffff169150600e8481548110151561220c57fe5b906000526020600020906007020160060160008373ffffffffffffffffffffffffffffffffffffffff1673ffffffffffffffffffffffffffffffffffffffff1681526020019081526020016000205490506000600e8581548110151561226e57fe5b906000526020600020906007020160060160008473ffffffffffffffffffffffffffffffffffffffff1673ffffffffffffffffffffffffffffffffffffffff168152602001908152602001600020819055508173ffffffffffffffffffffffffffffffffffffffff166108fc829081150290604051600060405180830381858888f19350505050158015612306573d6000803e3d6000fd5b508280600101935050612178565b50505050565b6060612325826129fc565b151561233057600080fd5b600c60008381526020019081526020016000208054600181600116156101000203166002900480601f0160208091040260200160405190810160405280929190818152602001828054600181600116156101000203166002900480156123d75780601f106123ac576101008083540402835291602001916123d7565b820191906000526020600020905b8154815290600101906020018083116123ba57829003601f168201915b50505050509050919050565b6000600560008473ffffffffffffffffffffffffffffffffffffffff1673ffffffffffffffffffffffffffffffffffffffff16815260200190815260200160002060008373ffffffffffffffffffffffffffffffffffffffff1673ffffffffffffffffffffffffffffffffffffffff16815260200190815260200160002060009054906101000a900460ff16905092915050565b606080600080601060008673ffffffffffffffffffffffffffffffffffffffff1673ffffffffffffffffffffffffffffffffffffffff168152602001908152602001600020546040519080825280602002602001820160405280156124eb5781602001602082028038833980820191505090505b50925060009150600090505b600e8054905081101561259e578473ffffffffffffffffffffffffffffffffffffffff16600f600083815260200190815260200160002060009054906101000a900473ffffffffffffffffffffffffffffffffffffffff1673ffffffffffffffffffffffffffffffffffffffff1614156125915780838381518110151561257a57fe5b906020019060200201818152505081806001019250505b80806001019150506124f7565b829350505050919050565b600080600e848154811015156125bb57fe5b906000526020600020906007020160020154600e858154811015156125dc57fe5b9060005260206000209060070201600301541015156125fa57600080fd5b600e8481548110151561260957fe5b906000526020600020906007020160040154421115151561262957600080fd5b600f600085815260200190815260200160002060009054906101000a900473ffffffffffffffffffffffffffffffffffffffff1673ffffffffffffffffffffffffffffffffffffffff163373ffffffffffffffffffffffffffffffffffffffff161415151561269757600080fd5b60009150600090505b600e848154811015156126af57fe5b906000526020600020906007020160050180549050811015612768573373ffffffffffffffffffffffffffffffffffffffff16600e858154811015156126f157fe5b90600052602060002090600702016005018281548110151561270f57fe5b9060005260206000200160009054906101000a900473ffffffffffffffffffffffffffffffffffffffff1673ffffffffffffffffffffffffffffffffffffffff16141561275b57600191505b80806001019150506126a0565b34600e8581548110151561277857fe5b90600052602060002090600702016003015401600e8581548110151561279a57fe5b90600052602060002090600702016003018190555060001515821515141561284157600e848154811015156127cb57fe5b90600052602060002090600702016005013390806001815401808255809150509060018203906000526020600020016000909192909190916101000a81548173ffffffffffffffffffffffffffffffffffffffff021916908373ffffffffffffffffffffffffffffffffffffffff160217905550505b34600e8581548110151561285157fe5b906000526020600020906007020160060160003373ffffffffffffffffffffffffffffffffffffffff1673ffffffffffffffffffffffffffffffffffffffff168152602001908152602001600020600082825401925050819055506128b58361311a565b7f7c3617bcd41a6976641cfaa353ed4dccd7e7c285b45dfc00ba71ff247afdd554600e858154811015156128e557fe5b906000526020600020906007020160000154600e8681548110151561290657fe5b90600052602060002090600702016003015434600e8881548110151561292857fe5b9060005260206000209060070201600501604051808581526020018481526020018381526020018060200182810382528381815481526020019150805480156129c657602002820191906000526020600020905b8160009054906101000a900473ffffffffffffffffffffffffffffffffffffffff1673ffffffffffffffffffffffffffffffffffffffff168152602001906001019080831161297c575b50509550505050505060405180910390a150505050565b6129e56116e3565b15156129f057600080fd5b6129f981613155565b50565b6000806002600084815260200190815260200160002060009054906101000a900473ffffffffffffffffffffffffffffffffffffffff169050600073ffffffffffffffffffffffffffffffffffffffff168173ffffffffffffffffffffffffffffffffffffffff161415915050919050565b600080612a7a836114e6565b90508073ffffffffffffffffffffffffffffffffffffffff168473ffffffffffffffffffffffffffffffffffffffff161480612ae957508373ffffffffffffffffffffffffffffffffffffffff16612ad184611012565b73ffffffffffffffffffffffffffffffffffffffff16145b80612afa5750612af981856123e3565b5b91505092915050565b8173ffffffffffffffffffffffffffffffffffffffff16612b23826114e6565b73ffffffffffffffffffffffffffffffffffffffff16141515612b4557600080fd5b600073ffffffffffffffffffffffffffffffffffffffff166003600083815260200190815260200160002060009054906101000a900473ffffffffffffffffffffffffffffffffffffffff1673ffffffffffffffffffffffffffffffffffffffff16141515612c025760006003600083815260200190815260200160002060006101000a81548173ffffffffffffffffffffffffffffffffffffffff021916908373ffffffffffffffffffffffffffffffffffffffff1602179055505b5050565b6000806000612c15858561324f565b60076000858152602001908152602001600020549250612c816001600660008873ffffffffffffffffffffffffffffffffffffffff1673ffffffffffffffffffffffffffffffffffffffff1681526020019081526020016000208054905061337e90919063ffffffff16565b9150600660008673ffffffffffffffffffffffffffffffffffffffff1673ffffffffffffffffffffffffffffffffffffffff16815260200190815260200160002082815481101515612ccf57fe5b9060005260206000200154905080600660008773ffffffffffffffffffffffffffffffffffffffff1673ffffffffffffffffffffffffffffffffffffffff16815260200190815260200160002084815481101515612d2957fe5b9060005260206000200181905550600660008673ffffffffffffffffffffffffffffffffffffffff1673ffffffffffffffffffffffffffffffffffffffff168152602001908152602001600020805480919060019003612d8991906138cf565b50600060076000868152602001908152602001600020819055508260076000838152602001908152602001600020819055505050505050565b6000612dce838361339f565b600660008473ffffffffffffffffffffffffffffffffffffffff1673ffffffffffffffffffffffffffffffffffffffff168152602001908152602001600020805490509050600660008473ffffffffffffffffffffffffffffffffffffffff1673ffffffffffffffffffffffffffffffffffffffff168152602001908152602001600020829080600181540180825580915050906001820390600052602060002001600090919290919091505550806007600084815260200190815260200160002081905550505050565b612ea382826134f9565b6000600c6000838152602001908152602001600020805460018160011615610100020316600290049050141515612ef457600c60008281526020019081526020016000206000612ef391906138fb565b5b5050565b600080612f1a8573ffffffffffffffffffffffffffffffffffffffff166135e0565b1515612f295760019150613111565b8473ffffffffffffffffffffffffffffffffffffffff1663150b7a02338887876040518563ffffffff167c0100000000000000000000000000000000000000000000000000000000028152600401808573ffffffffffffffffffffffffffffffffffffffff1673ffffffffffffffffffffffffffffffffffffffff1681526020018473ffffffffffffffffffffffffffffffffffffffff1673ffffffffffffffffffffffffffffffffffffffff16815260200183815260200180602001828103825283818151815260200191508051906020019080838360005b8381101561301e578082015181840152602081019050613003565b50505050905090810190601f16801561304b5780820380516001836020036101000a031916815260200191505b5095505050505050602060405180830381600087803b15801561306d57600080fd5b505af1158015613081573d6000803e3d6000fd5b505050506040513d602081101561309757600080fd5b8101908080519060200190929190505050905063150b7a027c0100000000000000000000000000000000000000000000000000000000027bffffffffffffffffffffffffffffffffffffffffffffffffffffffff1916817bffffffffffffffffffffffffffffffffffffffffffffffffffffffff19161491505b50949350505050565b6000600d5490506131376001600d546135f390919063ffffffff16565b600d819055506131473382613614565b613151818361366b565b5050565b600073ffffffffffffffffffffffffffffffffffffffff168173ffffffffffffffffffffffffffffffffffffffff161415151561319157600080fd5b8073ffffffffffffffffffffffffffffffffffffffff166000809054906101000a900473ffffffffffffffffffffffffffffffffffffffff1673ffffffffffffffffffffffffffffffffffffffff167f8be0079c531659141344cd1fd0a4f28419497f9722a3daafe3b4186f6b6457e060405160405180910390a3806000806101000a81548173ffffffffffffffffffffffffffffffffffffffff021916908373ffffffffffffffffffffffffffffffffffffffff16021790555050565b8173ffffffffffffffffffffffffffffffffffffffff1661326f826114e6565b73ffffffffffffffffffffffffffffffffffffffff1614151561329157600080fd5b6132e46001600460008573ffffffffffffffffffffffffffffffffffffffff1673ffffffffffffffffffffffffffffffffffffffff1681526020019081526020016000205461337e90919063ffffffff16565b600460008473ffffffffffffffffffffffffffffffffffffffff1673ffffffffffffffffffffffffffffffffffffffff1681526020019081526020016000208190555060006002600083815260200190815260200160002060006101000a81548173ffffffffffffffffffffffffffffffffffffffff021916908373ffffffffffffffffffffffffffffffffffffffff1602179055505050565b60008083831115151561339057600080fd5b82840390508091505092915050565b600073ffffffffffffffffffffffffffffffffffffffff166002600083815260200190815260200160002060009054906101000a900473ffffffffffffffffffffffffffffffffffffffff1673ffffffffffffffffffffffffffffffffffffffff1614151561340d57600080fd5b816002600083815260200190815260200160002060006101000a81548173ffffffffffffffffffffffffffffffffffffffff021916908373ffffffffffffffffffffffffffffffffffffffff1602179055506134b26001600460008573ffffffffffffffffffffffffffffffffffffffff1673ffffffffffffffffffffffffffffffffffffffff168152602001908152602001600020546135f390919063ffffffff16565b600460008473ffffffffffffffffffffffffffffffffffffffff1673ffffffffffffffffffffffffffffffffffffffff168152602001908152602001600020819055505050565b600080600061350885856136ab565b60096000858152602001908152602001600020549250613537600160088054905061337e90919063ffffffff16565b915060088281548110151561354857fe5b906000526020600020015490508060088481548110151561356557fe5b9060005260206000200181905550600060088381548110151561358457fe5b906000526020600020018190555060088054809190600190036135a791906138cf565b50600060096000868152602001908152602001600020819055508260096000838152602001908152602001600020819055505050505050565b600080823b905060008111915050919050565b600080828401905083811015151561360a57600080fd5b8091505092915050565b61361e828261371f565b600880549050600960008381526020019081526020016000208190555060088190806001815401808255809150509060018203906000526020600020016000909192909190915055505050565b613674826129fc565b151561367f57600080fd5b80600c600084815260200190815260200160002090805190602001906136a6929190613943565b505050565b6136b58282612b03565b6136bf8282612c06565b80600073ffffffffffffffffffffffffffffffffffffffff168373ffffffffffffffffffffffffffffffffffffffff167fddf252ad1be2c89b69c2b068fc378daa952ba7f163c4a11628f55a4df523b3ef60405160405180910390a45050565b600073ffffffffffffffffffffffffffffffffffffffff168273ffffffffffffffffffffffffffffffffffffffff161415151561375b57600080fd5b6137658282612dc2565b808273ffffffffffffffffffffffffffffffffffffffff16600073ffffffffffffffffffffffffffffffffffffffff167fddf252ad1be2c89b69c2b068fc378daa952ba7f163c4a11628f55a4df523b3ef60405160405180910390a45050565b828054600181600116156101000203166002900490600052602060002090601f016020900481019282601f1061380657805160ff1916838001178555613834565b82800160010185558215613834579182015b82811115613833578251825591602001919060010190613818565b5b50905061384191906139c3565b5090565b8280548282559060005260206000209081019282156138be579160200282015b828111156138bd5782518260006101000a81548173ffffffffffffffffffffffffffffffffffffffff021916908373ffffffffffffffffffffffffffffffffffffffff16021790555091602001919060010190613865565b5b5090506138cb91906139e8565b5090565b8154818355818111156138f6578183600052602060002091820191016138f591906139c3565b5b505050565b50805460018160011615610100020316600290046000825580601f106139215750613940565b601f01602090049060005260206000209081019061393f91906139c3565b5b50565b828054600181600116156101000203166002900490600052602060002090601f016020900481019282601f1061398457805160ff19168380011785556139b2565b828001600101855582156139b2579182015b828111156139b1578251825591602001919060010190613996565b5b5090506139bf91906139c3565b5090565b6139e591905b808211156139e15760008160009055506001016139c9565b5090565b90565b613a2891905b80821115613a2457600081816101000a81549073ffffffffffffffffffffffffffffffffffffffff0219169055506001016139ee565b5090565b905600a165627a7a72305820811e1667c10a517efd955efa3b01c7aea95b9d1c1707e44a7f7010a50502ffc40029",
  "source": "pragma solidity ^0.4.23;\nimport \"openzeppelin-solidity/contracts/ownership/Ownable.sol\";\nimport \"openzeppelin-solidity/contracts/token/ERC721/ERC721Full.sol\";\n\ncontract Crediential is ERC721Full {\n\n  constructor() public ERC721Full(\"DFCrediential\", \"DFC\"){\n  }\n\n  uint256 internal nextTokenId = 0;\n\n  function mint(string _message) internal {\n    uint256 tokenId = nextTokenId;\n    nextTokenId = nextTokenId.add(1);\n    super._mint(msg.sender, tokenId);\n    super._setTokenURI(tokenId, _message);\n  }\n\n  function burn(uint256 _tokenId) external {\n    super._burn(msg.sender, _tokenId);\n  }\n\n  function supportTokenid(address _owner) public view returns (uint[]) {\n    uint[] memory tokenlist = new uint[](balanceOf(_owner));\n    for (uint i = 0; i < balanceOf(_owner); i++) {\n      tokenlist[i] = tokenOfOwnerByIndex(_owner, i);\n    }\n    return tokenlist;\n  }\n\n}\n\ncontract DFcore is Ownable, Crediential {\n\n  event NewPJ(uint id, string title, uint goal, uint amount, uint limit, address[] supporters);\n  event Deposit(uint id, uint funded, uint pledged, address[] supporters);\n\n  struct PJ {\n    uint id;\n    string title;\n    uint goal;\n    uint amount;\n    uint limittime;\n    address[] supportersArray;\n    mapping (address => uint) funds;  //\n  }\n\n  PJ[] public PJs;\n  mapping (uint => address) public PJToOwner;\n  mapping (address => uint) public ownerPJCount;\n\n  modifier onlyOwnerOf(uint _PJId) {\n    require(msg.sender == PJToOwner[_PJId]);\n    _;\n  }\n\n  function makePJ(string _title, uint _goal, uint _limittime) public {  // ETH\n    /* uint _limittime = now + 30 days; //30 */\n    address[] memory _supportersArray;\n    uint _id = PJs.length;\n    PJs.push(PJ(_id, _title, _goal, 0, _limittime, _supportersArray));\n    PJToOwner[_id] = msg.sender;\n    ownerPJCount[msg.sender]++;\n    emit NewPJ(_id, _title, _goal, 0, _limittime, _supportersArray);\n  }\n\n  function deposit(uint _id, string _URI) public payable { // ETH\n    require(PJs[_id].amount < PJs[_id].goal);\n    require(now <= PJs[_id].limittime);\n    require(msg.sender != PJToOwner[_id]);\n    bool flag = false;\n    //PJs[_id].supportersArray msg.value\n    // PJs[_id].supportersArray.push(msg.sender)\n    for (uint i = 0; i < PJs[_id].supportersArray.length; i++) {\n      if (PJs[_id].supportersArray[i] == msg.sender) {\n        flag = true;\n      }\n    }\n    PJs[_id].amount = PJs[_id].amount + msg.value;\n    if (flag == false) {\n        PJs[_id].supportersArray.push(msg.sender);\n    }\n    PJs[_id].funds[msg.sender] += msg.value;\n    mint(_URI);\n    emit Deposit(PJs[_id].id, PJs[_id].amount, msg.value, PJs[_id].supportersArray);\n  }\n\n  function success_withdraw(uint _id) public onlyOwnerOf(_id) {  // PJ\n    require(PJs[_id].amount >= PJs[_id].goal);\n    uint nakami = PJs[_id].amount;\n    PJs[_id].amount = 0;\n    ownerPJCount[PJToOwner[_id]]--;\n    PJToOwner[_id] = owner(); //owner\n    ownerPJCount[owner()]++;\n    msg.sender.transfer(nakami);\n  }\n\n  function failure_withdraw(uint _id) public {  // \n    require(now > PJs[_id].limittime);\n    require(PJs[_id].amount < PJs[_id].goal);\n    for (uint i = 0; i < PJs[_id].supportersArray.length; i++) {\n      address supporteraddress = PJs[_id].supportersArray[i];\n      uint siengaku = PJs[_id].funds[supporteraddress];\n      PJs[_id].funds[supporteraddress] = 0;\n      supporteraddress.transfer(siengaku);\n    }\n  }\n\n  function getPJByOwner(address _owner) external view returns(uint[]) {\n    uint[] memory result = new uint[](ownerPJCount[_owner]);\n    uint counter = 0;\n    for (uint i = 0; i < PJs.length; i++) {\n      if (PJToOwner[i] == _owner) {\n        result[counter] = i;\n        counter++;\n      }\n    }\n    return result;\n  }\n\n  function getPJInfo(uint _id) public view returns(uint256, string, uint256, uint256, uint256, address[]) {\n    return (PJs[_id].id, PJs[_id].title, PJs[_id].goal, PJs[_id].amount, PJs[_id].limittime, PJs[_id].supportersArray);\n  }\n\n  function getPJFunds(uint _id, address _address) public view returns(uint256) {\n    return (PJs[_id].funds[_address]);\n  }\n\n  function getPJCount() public view returns(uint256) {\n    return PJs.length;\n  }\n\n}\n",
  "sourcePath": "/Users/mktia/Projects/Solidity/sample-app/contracts/DFcore.sol",
  "compiler": {
    "name": "solc",
    "version": "0.4.24+commit.e67f0147.Emscripten.clang"
  },
  "schemaVersion": "2.0.1",
  "updatedAt": "2018-12-17T05:10:57.997Z"
}