{
  "contractName": "DFcore",
  "abi": [
    {
      "constant": true,
      "inputs": [
        {
          "name": "",
          "type": "uint256"
        }
      ],
      "name": "PJs",
      "outputs": [
        {
          "name": "title",
          "type": "string"
        },
        {
          "name": "goal",
          "type": "uint256"
        },
        {
          "name": "amount",
          "type": "uint256"
        },
        {
          "name": "limittime",
          "type": "uint256"
        }
      ],
      "payable": false,
      "stateMutability": "view",
      "type": "function"
    },
    {
      "constant": true,
      "inputs": [
        {
          "name": "",
          "type": "uint256"
        }
      ],
      "name": "PJToOwner",
      "outputs": [
        {
          "name": "",
          "type": "address"
        }
      ],
      "payable": false,
      "stateMutability": "view",
      "type": "function"
    },
    {
      "constant": false,
      "inputs": [],
      "name": "renounceOwnership",
      "outputs": [],
      "payable": false,
      "stateMutability": "nonpayable",
      "type": "function"
    },
    {
      "constant": true,
      "inputs": [],
      "name": "owner",
      "outputs": [
        {
          "name": "",
          "type": "address"
        }
      ],
      "payable": false,
      "stateMutability": "view",
      "type": "function"
    },
    {
      "constant": true,
      "inputs": [],
      "name": "isOwner",
      "outputs": [
        {
          "name": "",
          "type": "bool"
        }
      ],
      "payable": false,
      "stateMutability": "view",
      "type": "function"
    },
    {
      "constant": true,
      "inputs": [
        {
          "name": "",
          "type": "address"
        }
      ],
      "name": "ownerPJCount",
      "outputs": [
        {
          "name": "",
          "type": "uint256"
        }
      ],
      "payable": false,
      "stateMutability": "view",
      "type": "function"
    },
    {
      "constant": false,
      "inputs": [
        {
          "name": "newOwner",
          "type": "address"
        }
      ],
      "name": "transferOwnership",
      "outputs": [],
      "payable": false,
      "stateMutability": "nonpayable",
      "type": "function"
    },
    {
      "anonymous": false,
      "inputs": [
        {
          "indexed": true,
          "name": "previousOwner",
          "type": "address"
        },
        {
          "indexed": true,
          "name": "newOwner",
          "type": "address"
        }
      ],
      "name": "OwnershipTransferred",
      "type": "event"
    },
    {
      "constant": false,
      "inputs": [
        {
          "name": "_title",
          "type": "string"
        },
        {
          "name": "_goal",
          "type": "uint256"
        },
        {
          "name": "_limittime",
          "type": "uint256"
        }
      ],
      "name": "makePJ",
      "outputs": [],
      "payable": false,
      "stateMutability": "nonpayable",
      "type": "function"
    },
    {
      "constant": false,
      "inputs": [
        {
          "name": "_id",
          "type": "uint256"
        }
      ],
      "name": "deposit",
      "outputs": [],
      "payable": true,
      "stateMutability": "payable",
      "type": "function"
    },
    {
      "constant": false,
      "inputs": [
        {
          "name": "_id",
          "type": "uint256"
        }
      ],
      "name": "success_withdraw",
      "outputs": [],
      "payable": false,
      "stateMutability": "nonpayable",
      "type": "function"
    },
    {
      "constant": false,
      "inputs": [
        {
          "name": "_id",
          "type": "uint256"
        }
      ],
      "name": "failure_withdraw",
      "outputs": [],
      "payable": false,
      "stateMutability": "nonpayable",
      "type": "function"
    },
    {
      "constant": true,
      "inputs": [
        {
          "name": "_owner",
          "type": "address"
        }
      ],
      "name": "getPJByOwner",
      "outputs": [
        {
          "name": "",
          "type": "uint256[]"
        }
      ],
      "payable": false,
      "stateMutability": "view",
      "type": "function"
    },
    {
      "constant": true,
      "inputs": [
        {
          "name": "_id",
          "type": "uint256"
        }
      ],
      "name": "getPJInfo",
      "outputs": [
        {
          "name": "",
          "type": "string"
        },
        {
          "name": "",
          "type": "uint256"
        },
        {
          "name": "",
          "type": "uint256"
        },
        {
          "name": "",
          "type": "uint256"
        },
        {
          "name": "",
          "type": "address[]"
        }
      ],
      "payable": false,
      "stateMutability": "view",
      "type": "function"
    },
    {
      "constant": true,
      "inputs": [
        {
          "name": "_id",
          "type": "uint256"
        },
        {
          "name": "_address",
          "type": "address"
        }
      ],
      "name": "getPJFunds",
      "outputs": [
        {
          "name": "",
          "type": "uint256"
        }
      ],
      "payable": false,
      "stateMutability": "view",
      "type": "function"
    },
    {
      "constant": true,
      "inputs": [],
      "name": "getPJCount",
      "outputs": [
        {
          "name": "",
          "type": "uint256"
        }
      ],
      "payable": false,
      "stateMutability": "view",
      "type": "function"
    }
  ],
  "bytecode": "0x6080604052336000806101000a81548173ffffffffffffffffffffffffffffffffffffffff021916908373ffffffffffffffffffffffffffffffffffffffff1602179055506000809054906101000a900473ffffffffffffffffffffffffffffffffffffffff1673ffffffffffffffffffffffffffffffffffffffff16600073ffffffffffffffffffffffffffffffffffffffff167f8be0079c531659141344cd1fd0a4f28419497f9722a3daafe3b4186f6b6457e060405160405180910390a36116cd806100cf6000396000f3006080604052600436106100db576000357c0100000000000000000000000000000000000000000000000000000000900463ffffffff16806332d561b2146100e057806332fa0d971461019b578063469b942b146102085780636282940514610269578063715018a6146102945780638da5cb5b146102ab5780638f32d59b146103025780639154ea7c1461033157806395b7f70e146103ae57806397435c15146103db578063a154f510146104de578063b6b55f2514610535578063bf7102b714610555578063ed695a5f14610582578063f2fde38b1461061a575b600080fd5b3480156100ec57600080fd5b5061010b6004803603810190808035906020019092919050505061065d565b6040518080602001858152602001848152602001838152602001828103825286818151815260200191508051906020019080838360005b8381101561015d578082015181840152602081019050610142565b50505050905090810190601f16801561018a5780820380516001836020036101000a031916815260200191505b509550505050505060405180910390f35b3480156101a757600080fd5b506101c660048036038101908080359060200190929190505050610734565b604051808273ffffffffffffffffffffffffffffffffffffffff1673ffffffffffffffffffffffffffffffffffffffff16815260200191505060405180910390f35b34801561021457600080fd5b5061025360048036038101908080359060200190929190803573ffffffffffffffffffffffffffffffffffffffff169060200190929190505050610767565b6040518082815260200191505060405180910390f35b34801561027557600080fd5b5061027e6107cf565b6040518082815260200191505060405180910390f35b3480156102a057600080fd5b506102a96107dc565b005b3480156102b757600080fd5b506102c06108ae565b604051808273ffffffffffffffffffffffffffffffffffffffff1673ffffffffffffffffffffffffffffffffffffffff16815260200191505060405180910390f35b34801561030e57600080fd5b506103176108d7565b604051808215151515815260200191505060405180910390f35b34801561033d57600080fd5b506103ac600480360381019080803590602001908201803590602001908080601f0160208091040260200160405190810160405280939291908181526020018383808284378201915050505050509192919290803590602001909291908035906020019092919050505061092e565b005b3480156103ba57600080fd5b506103d960048036038101908080359060200190929190505050610a8e565b005b3480156103e757600080fd5b5061040660048036038101908080359060200190929190505050610d14565b604051808060200186815260200185815260200184815260200180602001838103835288818151815260200191508051906020019080838360005b8381101561045c578082015181840152602081019050610441565b50505050905090810190601f1680156104895780820380516001836020036101000a031916815260200191505b50838103825284818151815260200191508051906020019060200280838360005b838110156104c55780820151818401526020810190506104aa565b5050505090500197505050505050505060405180910390f35b3480156104ea57600080fd5b5061051f600480360381019080803573ffffffffffffffffffffffffffffffffffffffff169060200190929190505050610ef7565b6040518082815260200191505060405180910390f35b61055360048036038101908080359060200190929190505050610f0f565b005b34801561056157600080fd5b50610580600480360381019080803590602001909291905050506110bc565b005b34801561058e57600080fd5b506105c3600480360381019080803573ffffffffffffffffffffffffffffffffffffffff1690602001909291905050506112e4565b6040518080602001828103825283818151815260200191508051906020019060200280838360005b838110156106065780820151818401526020810190506105eb565b505050509050019250505060405180910390f35b34801561062657600080fd5b5061065b600480360381019080803573ffffffffffffffffffffffffffffffffffffffff169060200190929190505050611416565b005b60018181548110151561066c57fe5b9060005260206000209060060201600091509050806000018054600181600116156101000203166002900480601f0160208091040260200160405190810160405280929190818152602001828054600181600116156101000203166002900480156107185780601f106106ed57610100808354040283529160200191610718565b820191906000526020600020905b8154815290600101906020018083116106fb57829003601f168201915b5050505050908060010154908060020154908060030154905084565b60026020528060005260406000206000915054906101000a900473ffffffffffffffffffffffffffffffffffffffff1681565b600060018381548110151561077857fe5b906000526020600020906006020160050160008373ffffffffffffffffffffffffffffffffffffffff1673ffffffffffffffffffffffffffffffffffffffff16815260200190815260200160002054905092915050565b6000600180549050905090565b6107e46108d7565b15156107ef57600080fd5b600073ffffffffffffffffffffffffffffffffffffffff166000809054906101000a900473ffffffffffffffffffffffffffffffffffffffff1673ffffffffffffffffffffffffffffffffffffffff167f8be0079c531659141344cd1fd0a4f28419497f9722a3daafe3b4186f6b6457e060405160405180910390a360008060006101000a81548173ffffffffffffffffffffffffffffffffffffffff021916908373ffffffffffffffffffffffffffffffffffffffff160217905550565b60008060009054906101000a900473ffffffffffffffffffffffffffffffffffffffff16905090565b60008060009054906101000a900473ffffffffffffffffffffffffffffffffffffffff1673ffffffffffffffffffffffffffffffffffffffff163373ffffffffffffffffffffffffffffffffffffffff1614905090565b6060600060018060a06040519081016040528088815260200187815260200160008152602001868152602001858152509080600181540180825580915050906001820390600052602060002090600602016000909192909190915060008201518160000190805190602001906109a592919061152f565b5060208201518160010155604082015181600201556060820151816003015560808201518160040190805190602001906109e09291906115af565b505050039050336002600083815260200190815260200160002060006101000a81548173ffffffffffffffffffffffffffffffffffffffff021916908373ffffffffffffffffffffffffffffffffffffffff160217905550600360003373ffffffffffffffffffffffffffffffffffffffff1673ffffffffffffffffffffffffffffffffffffffff168152602001908152602001600020600081548092919060010191905055505050505050565b6000816002600082815260200190815260200160002060009054906101000a900473ffffffffffffffffffffffffffffffffffffffff1673ffffffffffffffffffffffffffffffffffffffff163373ffffffffffffffffffffffffffffffffffffffff16141515610afe57600080fd5b600183815481101515610b0d57fe5b906000526020600020906006020160010154600184815481101515610b2e57fe5b90600052602060002090600602016002015410151515610b4d57600080fd5b600183815481101515610b5c57fe5b90600052602060002090600602016002015491506000600184815481101515610b8157fe5b906000526020600020906006020160020181905550600360006002600086815260200190815260200160002060009054906101000a900473ffffffffffffffffffffffffffffffffffffffff1673ffffffffffffffffffffffffffffffffffffffff1673ffffffffffffffffffffffffffffffffffffffff1681526020019081526020016000206000815480929190600190039190505550610c216108ae565b6002600085815260200190815260200160002060006101000a81548173ffffffffffffffffffffffffffffffffffffffff021916908373ffffffffffffffffffffffffffffffffffffffff16021790555060036000610c7e6108ae565b73ffffffffffffffffffffffffffffffffffffffff1673ffffffffffffffffffffffffffffffffffffffff168152602001908152602001600020600081548092919060010191905055503373ffffffffffffffffffffffffffffffffffffffff166108fc839081150290604051600060405180830381858888f19350505050158015610d0e573d6000803e3d6000fd5b50505050565b606060008060006060600186815481101515610d2c57fe5b9060005260206000209060060201600001600187815481101515610d4c57fe5b906000526020600020906006020160010154600188815481101515610d6d57fe5b906000526020600020906006020160020154600189815481101515610d8e57fe5b90600052602060002090600602016003015460018a815481101515610daf57fe5b9060005260206000209060060201600401848054600181600116156101000203166002900480601f016020809104026020016040519081016040528092919081815260200182805460018160011615610100020316600290048015610e555780601f10610e2a57610100808354040283529160200191610e55565b820191906000526020600020905b815481529060010190602001808311610e3857829003601f168201915b5050505050945080805480602002602001604051908101604052809291908181526020018280548015610edd57602002820191906000526020600020905b8160009054906101000a900473ffffffffffffffffffffffffffffffffffffffff1673ffffffffffffffffffffffffffffffffffffffff1681526020019060010190808311610e93575b505050505090509450945094509450945091939590929450565b60036020528060005260406000206000915090505481565b600181815481101515610f1e57fe5b906000526020600020906006020160010154600182815481101515610f3f57fe5b906000526020600020906006020160020154101515610f5d57600080fd5b600181815481101515610f6c57fe5b9060005260206000209060060201600301544211151515610f8c57600080fd5b34600182815481101515610f9c57fe5b90600052602060002090600602016002015401600182815481101515610fbe57fe5b906000526020600020906006020160020181905550600181815481101515610fe257fe5b90600052602060002090600602016004013390806001815401808255809150509060018203906000526020600020016000909192909190916101000a81548173ffffffffffffffffffffffffffffffffffffffff021916908373ffffffffffffffffffffffffffffffffffffffff160217905550503460018281548110151561106757fe5b906000526020600020906006020160050160003373ffffffffffffffffffffffffffffffffffffffff1673ffffffffffffffffffffffffffffffffffffffff1681526020019081526020016000208190555050565b60008060006001848154811015156110d057fe5b906000526020600020906006020160030154421115156110ef57600080fd5b6001848154811015156110fe57fe5b90600052602060002090600602016001015460018581548110151561111f57fe5b90600052602060002090600602016002015410151561113d57600080fd5b600092505b60018481548110151561115157fe5b9060005260206000209060060201600401805490508310156112de5760018481548110151561117c57fe5b90600052602060002090600602016004018381548110151561119a57fe5b9060005260206000200160009054906101000a900473ffffffffffffffffffffffffffffffffffffffff1691506001848154811015156111d657fe5b906000526020600020906006020160050160008373ffffffffffffffffffffffffffffffffffffffff1673ffffffffffffffffffffffffffffffffffffffff168152602001908152602001600020549050600060018581548110151561123857fe5b906000526020600020906006020160050160008473ffffffffffffffffffffffffffffffffffffffff1673ffffffffffffffffffffffffffffffffffffffff168152602001908152602001600020819055508173ffffffffffffffffffffffffffffffffffffffff166108fc829081150290604051600060405180830381858888f193505050501580156112d0573d6000803e3d6000fd5b508280600101935050611142565b50505050565b606080600080600360008673ffffffffffffffffffffffffffffffffffffffff1673ffffffffffffffffffffffffffffffffffffffff168152602001908152602001600020546040519080825280602002602001820160405280156113585781602001602082028038833980820191505090505b50925060009150600090505b60018054905081101561140b578473ffffffffffffffffffffffffffffffffffffffff166002600083815260200190815260200160002060009054906101000a900473ffffffffffffffffffffffffffffffffffffffff1673ffffffffffffffffffffffffffffffffffffffff1614156113fe578083838151811015156113e757fe5b906020019060200201818152505081806001019250505b8080600101915050611364565b829350505050919050565b61141e6108d7565b151561142957600080fd5b61143281611435565b50565b600073ffffffffffffffffffffffffffffffffffffffff168173ffffffffffffffffffffffffffffffffffffffff161415151561147157600080fd5b8073ffffffffffffffffffffffffffffffffffffffff166000809054906101000a900473ffffffffffffffffffffffffffffffffffffffff1673ffffffffffffffffffffffffffffffffffffffff167f8be0079c531659141344cd1fd0a4f28419497f9722a3daafe3b4186f6b6457e060405160405180910390a3806000806101000a81548173ffffffffffffffffffffffffffffffffffffffff021916908373ffffffffffffffffffffffffffffffffffffffff16021790555050565b828054600181600116156101000203166002900490600052602060002090601f016020900481019282601f1061157057805160ff191683800117855561159e565b8280016001018555821561159e579182015b8281111561159d578251825591602001919060010190611582565b5b5090506115ab9190611639565b5090565b828054828255906000526020600020908101928215611628579160200282015b828111156116275782518260006101000a81548173ffffffffffffffffffffffffffffffffffffffff021916908373ffffffffffffffffffffffffffffffffffffffff160217905550916020019190600101906115cf565b5b509050611635919061165e565b5090565b61165b91905b8082111561165757600081600090555060010161163f565b5090565b90565b61169e91905b8082111561169a57600081816101000a81549073ffffffffffffffffffffffffffffffffffffffff021916905550600101611664565b5090565b905600a165627a7a7230582008e686e81124c4a147146fb225f36ae358d105d3e127c68e34e5735089b243730029",
  "source": "pragma solidity ^0.4.23;\nimport \"openzeppelin-solidity/contracts/ownership/Ownable.sol\";\n\ncontract DFcore is Ownable {\n\n  struct PJ {\n    string title;\n    uint goal;\n    uint amount;\n    uint limittime;\n    address[] supportersArray;\n    mapping (address => uint) funds;  //支援者の誰がどれだけ投げてくれたのかを記録しておく\n  }\n\n  PJ[] public PJs;\n  mapping (uint => address) public PJToOwner;\n  mapping (address => uint) public ownerPJCount;\n\n  modifier onlyOwnerOf(uint _PJId) {\n    require(msg.sender == PJToOwner[_PJId]);\n    _;\n  }\n\n  function makePJ(string _title, uint _goal, uint _limittime) public {  // クラウドファンディングのETHを貯める箱を作る関数\n    /* uint _limittime = now + 30 days; //とりあえずデフォルトで期限を30日と設定 */\n    address[] memory _supportersArray;\n    uint id = PJs.push(PJ(_title,_goal, 0, _limittime, _supportersArray)) - 1;\n    PJToOwner[id] = msg.sender;\n    ownerPJCount[msg.sender]++;\n  }\n\n  function deposit(uint _id) public payable { // 箱にETHを投げる関数\n    require(PJs[_id].amount < PJs[_id].goal);\n    require(now <= PJs[_id].limittime);\n    PJs[_id].amount = PJs[_id].amount + msg.value;\n    PJs[_id].supportersArray.push(msg.sender);\n    PJs[_id].funds[msg.sender] = msg.value;\n  }\n\n  function success_withdraw(uint _id) public onlyOwnerOf(_id) {  // 箱の中が満額以上の時のみ、PJ製作者がのみが実行してお金を引き出すことができる\n    require(PJs[_id].amount >= PJs[_id].goal);\n    uint nakami = PJs[_id].amount;\n    PJs[_id].amount = 0;\n    ownerPJCount[PJToOwner[_id]]--;\n    PJToOwner[_id] = owner(); //ownerはコントラクト作成者\n    ownerPJCount[owner()]++;\n    msg.sender.transfer(nakami);\n  }\n\n  function failure_withdraw(uint _id) public {  // 期限を超えて、目標額集まらなかった時に、貯めたお金を支援者に返金する\n    require(now > PJs[_id].limittime);\n    require(PJs[_id].amount < PJs[_id].goal);\n    for (uint i = 0; i < PJs[_id].supportersArray.length; i++) {\n      address supporteraddress = PJs[_id].supportersArray[i];\n      uint siengaku = PJs[_id].funds[supporteraddress];\n      PJs[_id].funds[supporteraddress] = 0;\n      supporteraddress.transfer(siengaku);\n    }\n  }\n\n  function getPJByOwner(address _owner) external view returns(uint[]) {\n    uint[] memory result = new uint[](ownerPJCount[_owner]);\n    uint counter = 0;\n    for (uint i = 0; i < PJs.length; i++) {\n      if (PJToOwner[i] == _owner) {\n        result[counter] = i;\n        counter++;\n      }\n    }\n    return result;\n  }\n\n  function getPJInfo(uint _id) public view returns(string, uint256, uint256, uint256, address[]) {\n    return (PJs[_id].title, PJs[_id].goal, PJs[_id].amount, PJs[_id].limittime, PJs[_id].supportersArray);\n  }\n\n  function getPJFunds(uint _id, address _address) public view returns(uint256) {\n    return (PJs[_id].funds[_address]);\n  }\n\n  function getPJCount() public view returns(uint256) {\n    return PJs.length;\n  }\n\n}\n",
  "sourcePath": "/Users/mktia/Projects/Solidity/decentralized-funding/contracts/DFcore.sol",
  "compiler": {
    "name": "solc",
    "version": "0.4.24+commit.e67f0147.Emscripten.clang"
  },
  "schemaVersion": "2.0.1",
  "updatedAt": "2018-11-12T07:34:09.135Z"
}